{
  "_format": "hh-sol-artifact-1",
  "contractName": "Domains",
  "sourceName": "contracts/Domains.sol",
  "abi": [
    {
      "inputs": [
        {
          "internalType": "string",
          "name": "_tld",
          "type": "string"
        }
      ],
      "stateMutability": "payable",
      "type": "constructor"
    },
    {
      "inputs": [],
      "name": "AlreadyRegistered",
      "type": "error"
    },
    {
      "inputs": [
        {
          "internalType": "string",
          "name": "name",
          "type": "string"
        }
      ],
      "name": "InvalidName",
      "type": "error"
    },
    {
      "inputs": [],
      "name": "Unauthorized",
      "type": "error"
    },
    {
      "anonymous": false,
      "inputs": [
        {
          "indexed": true,
          "internalType": "address",
          "name": "owner",
          "type": "address"
        },
        {
          "indexed": true,
          "internalType": "address",
          "name": "approved",
          "type": "address"
        },
        {
          "indexed": true,
          "internalType": "uint256",
          "name": "tokenId",
          "type": "uint256"
        }
      ],
      "name": "Approval",
      "type": "event"
    },
    {
      "anonymous": false,
      "inputs": [
        {
          "indexed": true,
          "internalType": "address",
          "name": "owner",
          "type": "address"
        },
        {
          "indexed": true,
          "internalType": "address",
          "name": "operator",
          "type": "address"
        },
        {
          "indexed": false,
          "internalType": "bool",
          "name": "approved",
          "type": "bool"
        }
      ],
      "name": "ApprovalForAll",
      "type": "event"
    },
    {
      "anonymous": false,
      "inputs": [
        {
          "indexed": true,
          "internalType": "address",
          "name": "from",
          "type": "address"
        },
        {
          "indexed": true,
          "internalType": "address",
          "name": "to",
          "type": "address"
        },
        {
          "indexed": true,
          "internalType": "uint256",
          "name": "tokenId",
          "type": "uint256"
        }
      ],
      "name": "Transfer",
      "type": "event"
    },
    {
      "inputs": [
        {
          "internalType": "address",
          "name": "to",
          "type": "address"
        },
        {
          "internalType": "uint256",
          "name": "tokenId",
          "type": "uint256"
        }
      ],
      "name": "approve",
      "outputs": [],
      "stateMutability": "nonpayable",
      "type": "function"
    },
    {
      "inputs": [
        {
          "internalType": "address",
          "name": "owner",
          "type": "address"
        }
      ],
      "name": "balanceOf",
      "outputs": [
        {
          "internalType": "uint256",
          "name": "",
          "type": "uint256"
        }
      ],
      "stateMutability": "view",
      "type": "function"
    },
    {
      "inputs": [],
      "name": "domainRec",
      "outputs": [
        {
          "internalType": "string",
          "name": "name",
          "type": "string"
        },
        {
          "internalType": "string",
          "name": "email",
          "type": "string"
        },
        {
          "internalType": "string",
          "name": "ipAddress",
          "type": "string"
        }
      ],
      "stateMutability": "view",
      "type": "function"
    },
    {
      "inputs": [
        {
          "internalType": "string",
          "name": "",
          "type": "string"
        }
      ],
      "name": "domains",
      "outputs": [
        {
          "internalType": "address",
          "name": "",
          "type": "address"
        }
      ],
      "stateMutability": "view",
      "type": "function"
    },
    {
      "inputs": [
        {
          "internalType": "string",
          "name": "name",
          "type": "string"
        }
      ],
      "name": "getAddress",
      "outputs": [
        {
          "internalType": "address",
          "name": "",
          "type": "address"
        }
      ],
      "stateMutability": "view",
      "type": "function"
    },
    {
      "inputs": [],
      "name": "getAllNames",
      "outputs": [
        {
          "internalType": "string[]",
          "name": "",
          "type": "string[]"
        }
      ],
      "stateMutability": "view",
      "type": "function"
    },
    {
      "inputs": [
        {
          "internalType": "uint256",
          "name": "tokenId",
          "type": "uint256"
        }
      ],
      "name": "getApproved",
      "outputs": [
        {
          "internalType": "address",
          "name": "",
          "type": "address"
        }
      ],
      "stateMutability": "view",
      "type": "function"
    },
    {
      "inputs": [],
      "name": "getRecord",
      "outputs": [
        {
          "components": [
            {
              "internalType": "string",
              "name": "name",
              "type": "string"
            },
            {
              "internalType": "string",
              "name": "email",
              "type": "string"
            },
            {
              "internalType": "string",
              "name": "ipAddress",
              "type": "string"
            }
          ],
          "internalType": "struct Domains.DomainRecord",
          "name": "",
          "type": "tuple"
        }
      ],
      "stateMutability": "view",
      "type": "function"
    },
    {
      "inputs": [
        {
          "internalType": "address",
          "name": "owner",
          "type": "address"
        },
        {
          "internalType": "address",
          "name": "operator",
          "type": "address"
        }
      ],
      "name": "isApprovedForAll",
      "outputs": [
        {
          "internalType": "bool",
          "name": "",
          "type": "bool"
        }
      ],
      "stateMutability": "view",
      "type": "function"
    },
    {
      "inputs": [],
      "name": "isOwner",
      "outputs": [
        {
          "internalType": "bool",
          "name": "",
          "type": "bool"
        }
      ],
      "stateMutability": "view",
      "type": "function"
    },
    {
      "inputs": [],
      "name": "name",
      "outputs": [
        {
          "internalType": "string",
          "name": "",
          "type": "string"
        }
      ],
      "stateMutability": "view",
      "type": "function"
    },
    {
      "inputs": [
        {
          "internalType": "uint256",
          "name": "",
          "type": "uint256"
        }
      ],
      "name": "names",
      "outputs": [
        {
          "internalType": "string",
          "name": "",
          "type": "string"
        }
      ],
      "stateMutability": "view",
      "type": "function"
    },
    {
      "inputs": [],
      "name": "owner",
      "outputs": [
        {
          "internalType": "address payable",
          "name": "",
          "type": "address"
        }
      ],
      "stateMutability": "view",
      "type": "function"
    },
    {
      "inputs": [
        {
          "internalType": "uint256",
          "name": "tokenId",
          "type": "uint256"
        }
      ],
      "name": "ownerOf",
      "outputs": [
        {
          "internalType": "address",
          "name": "",
          "type": "address"
        }
      ],
      "stateMutability": "view",
      "type": "function"
    },
    {
      "inputs": [
        {
          "internalType": "string",
          "name": "name",
          "type": "string"
        }
      ],
      "name": "price",
      "outputs": [
        {
          "internalType": "uint256",
          "name": "",
          "type": "uint256"
        }
      ],
      "stateMutability": "pure",
      "type": "function"
    },
    {
      "inputs": [
        {
          "internalType": "string",
          "name": "name",
          "type": "string"
        }
      ],
      "name": "register",
      "outputs": [],
      "stateMutability": "payable",
      "type": "function"
    },
    {
      "inputs": [
        {
          "internalType": "address",
          "name": "from",
          "type": "address"
        },
        {
          "internalType": "address",
          "name": "to",
          "type": "address"
        },
        {
          "internalType": "uint256",
          "name": "tokenId",
          "type": "uint256"
        }
      ],
      "name": "safeTransferFrom",
      "outputs": [],
      "stateMutability": "nonpayable",
      "type": "function"
    },
    {
      "inputs": [
        {
          "internalType": "address",
          "name": "from",
          "type": "address"
        },
        {
          "internalType": "address",
          "name": "to",
          "type": "address"
        },
        {
          "internalType": "uint256",
          "name": "tokenId",
          "type": "uint256"
        },
        {
          "internalType": "bytes",
          "name": "_data",
          "type": "bytes"
        }
      ],
      "name": "safeTransferFrom",
      "outputs": [],
      "stateMutability": "nonpayable",
      "type": "function"
    },
    {
      "inputs": [
        {
          "internalType": "address",
          "name": "operator",
          "type": "address"
        },
        {
          "internalType": "bool",
          "name": "approved",
          "type": "bool"
        }
      ],
      "name": "setApprovalForAll",
      "outputs": [],
      "stateMutability": "nonpayable",
      "type": "function"
    },
    {
      "inputs": [
        {
          "internalType": "string",
          "name": "name",
          "type": "string"
        },
        {
          "internalType": "string",
          "name": "record",
          "type": "string"
        },
        {
          "internalType": "string",
          "name": "email",
          "type": "string"
        }
      ],
      "name": "setRecord",
      "outputs": [],
      "stateMutability": "nonpayable",
      "type": "function"
    },
    {
      "inputs": [
        {
          "internalType": "bytes4",
          "name": "interfaceId",
          "type": "bytes4"
        }
      ],
      "name": "supportsInterface",
      "outputs": [
        {
          "internalType": "bool",
          "name": "",
          "type": "bool"
        }
      ],
      "stateMutability": "view",
      "type": "function"
    },
    {
      "inputs": [],
      "name": "symbol",
      "outputs": [
        {
          "internalType": "string",
          "name": "",
          "type": "string"
        }
      ],
      "stateMutability": "view",
      "type": "function"
    },
    {
      "inputs": [],
      "name": "tld",
      "outputs": [
        {
          "internalType": "string",
          "name": "",
          "type": "string"
        }
      ],
      "stateMutability": "view",
      "type": "function"
    },
    {
      "inputs": [
        {
          "internalType": "uint256",
          "name": "tokenId",
          "type": "uint256"
        }
      ],
      "name": "tokenURI",
      "outputs": [
        {
          "internalType": "string",
          "name": "",
          "type": "string"
        }
      ],
      "stateMutability": "view",
      "type": "function"
    },
    {
      "inputs": [
        {
          "internalType": "address",
          "name": "from",
          "type": "address"
        },
        {
          "internalType": "address",
          "name": "to",
          "type": "address"
        },
        {
          "internalType": "uint256",
          "name": "tokenId",
          "type": "uint256"
        }
      ],
      "name": "transferFrom",
      "outputs": [],
      "stateMutability": "nonpayable",
      "type": "function"
    },
    {
      "inputs": [
        {
          "internalType": "string",
          "name": "name",
          "type": "string"
        }
      ],
      "name": "valid",
      "outputs": [
        {
          "internalType": "bool",
          "name": "",
          "type": "bool"
        }
      ],
      "stateMutability": "pure",
      "type": "function"
    },
    {
      "inputs": [],
      "name": "withdraw",
      "outputs": [],
      "stateMutability": "nonpayable",
      "type": "function"
    }
  ],
  "bytecode": "0x6080604052604051806108a0016040528061086b8152602001620057a761086b9139600a908051906020019062000038929190620002c8565b506040518060400160405280600d81526020017f3c2f746578743e3c2f7376673e00000000000000000000000000000000000000815250600b908051906020019062000086929190620002c8565b5060405162006012380380620060128339818101604052810190620000ac919062000515565b6040518060400160405280601a81526020017f4b6172656e20436f6d706c61696e696e672053657276696365730000000000008152506040518060400160405280600381526020017f4b42530000000000000000000000000000000000000000000000000000000000815250816000908051906020019062000130929190620002c8565b50806001908051906020019062000149929190620002c8565b50505033600760006101000a81548173ffffffffffffffffffffffffffffffffffffffff021916908373ffffffffffffffffffffffffffffffffffffffff1602179055508060099080519060200190620001a5929190620002c8565b50620001f26040518060400160405280601881526020017f2573206e616d652073657276696365206465706c6f796564000000000000000081525082620001f960201b62001df71760201c565b5062000663565b6200029b828260405160240162000212929190620005c3565b6040516020818303038152906040527f4b5c4277000000000000000000000000000000000000000000000000000000007bffffffffffffffffffffffffffffffffffffffffffffffffffffffff19166020820180517bffffffffffffffffffffffffffffffffffffffffffffffffffffffff83818316178352505050506200029f60201b60201c565b5050565b60008151905060006a636f6e736f6c652e6c6f679050602083016000808483855afa5050505050565b828054620002d6906200062d565b90600052602060002090601f016020900481019282620002fa576000855562000346565b82601f106200031557805160ff191683800117855562000346565b8280016001018555821562000346579182015b828111156200034557825182559160200191906001019062000328565b5b50905062000355919062000359565b5090565b5b80821115620003745760008160009055506001016200035a565b5090565b6000604051905090565b600080fd5b600080fd5b600080fd5b600080fd5b6000601f19601f8301169050919050565b7f4e487b7100000000000000000000000000000000000000000000000000000000600052604160045260246000fd5b620003e18262000396565b810181811067ffffffffffffffff82111715620004035762000402620003a7565b5b80604052505050565b60006200041862000378565b9050620004268282620003d6565b919050565b600067ffffffffffffffff821115620004495762000448620003a7565b5b620004548262000396565b9050602081019050919050565b60005b838110156200048157808201518184015260208101905062000464565b8381111562000491576000848401525b50505050565b6000620004ae620004a8846200042b565b6200040c565b905082815260208101848484011115620004cd57620004cc62000391565b5b620004da84828562000461565b509392505050565b600082601f830112620004fa57620004f96200038c565b5b81516200050c84826020860162000497565b91505092915050565b6000602082840312156200052e576200052d62000382565b5b600082015167ffffffffffffffff8111156200054f576200054e62000387565b5b6200055d84828501620004e2565b91505092915050565b600081519050919050565b600082825260208201905092915050565b60006200058f8262000566565b6200059b818562000571565b9350620005ad81856020860162000461565b620005b88162000396565b840191505092915050565b60006040820190508181036000830152620005df818562000582565b90508181036020830152620005f5818462000582565b90509392505050565b7f4e487b7100000000000000000000000000000000000000000000000000000000600052602260045260246000fd5b600060028204905060018216806200064657607f821691505b602082108114156200065d576200065c620005fe565b5b50919050565b61513480620006736000396000f3fe60806040526004361061019c5760003560e01c8063721c2edb116100ec578063bf40fac11161008a578063f18ad6fb11610064578063f18ad6fb14610614578063f2c298be1461063f578063fb825e5f1461065b578063fe2c6198146106865761019c565b8063bf40fac11461055d578063c87b56dd1461059a578063e985e9c5146105d75761019c565b806395d89b41116100c657806395d89b41146104a35780639791c097146104ce578063a22cb4651461050b578063b88d4fde146105345761019c565b8063721c2edb146104245780638da5cb5b1461044d5780638f32d59b146104785761019c565b8063264492351161015957806342842e0e1161013357806342842e0e146103445780634622ab031461036d5780636352211e146103aa57806370a08231146103e75761019c565b806326449235146102c55780632d551432146103025780633ccfd60b1461032d5761019c565b806301ffc9a7146101a157806306fdde03146101de578063081812fc14610209578063095ea7b31461024657806310767ded1461026f57806323b872dd1461029c575b600080fd5b3480156101ad57600080fd5b506101c860048036038101906101c39190613399565b6106c3565b6040516101d591906133e1565b60405180910390f35b3480156101ea57600080fd5b506101f36107a5565b6040516102009190613495565b60405180910390f35b34801561021557600080fd5b50610230600480360381019061022b91906134ed565b610837565b60405161023d919061355b565b60405180910390f35b34801561025257600080fd5b5061026d600480360381019061026891906135a2565b6108bc565b005b34801561027b57600080fd5b506102846109d4565b604051610293939291906135e2565b60405180910390f35b3480156102a857600080fd5b506102c360048036038101906102be919061362e565b610b84565b005b3480156102d157600080fd5b506102ec60048036038101906102e791906137b6565b610be4565b6040516102f9919061355b565b60405180910390f35b34801561030e57600080fd5b50610317610c2d565b6040516103249190613495565b60405180910390f35b34801561033957600080fd5b50610342610cbb565b005b34801561035057600080fd5b5061036b6004803603810190610366919061362e565b610d81565b005b34801561037957600080fd5b50610394600480360381019061038f91906134ed565b610da1565b6040516103a19190613495565b60405180910390f35b3480156103b657600080fd5b506103d160048036038101906103cc91906134ed565b610e41565b6040516103de919061355b565b60405180910390f35b3480156103f357600080fd5b5061040e600480360381019061040991906137ff565b610ef3565b60405161041b919061383b565b60405180910390f35b34801561043057600080fd5b5061044b600480360381019061044691906138b6565b610fab565b005b34801561045957600080fd5b50610462611082565b60405161046f919061398b565b60405180910390f35b34801561048457600080fd5b5061048d6110a8565b60405161049a91906133e1565b60405180910390f35b3480156104af57600080fd5b506104b8611100565b6040516104c59190613495565b60405180910390f35b3480156104da57600080fd5b506104f560048036038101906104f091906139a6565b611192565b60405161050291906133e1565b60405180910390f35b34801561051757600080fd5b50610532600480360381019061052d9190613a1f565b611246565b005b34801561054057600080fd5b5061055b60048036038101906105569190613b00565b61125c565b005b34801561056957600080fd5b50610584600480360381019061057f91906139a6565b6112be565b604051610591919061355b565b60405180910390f35b3480156105a657600080fd5b506105c160048036038101906105bc91906134ed565b611309565b6040516105ce9190613495565b60405180910390f35b3480156105e357600080fd5b506105fe60048036038101906105f99190613b83565b61145b565b60405161060b91906133e1565b60405180910390f35b34801561062057600080fd5b506106296114ef565b6040516106369190613c6b565b60405180910390f35b610659600480360381019061065491906139a6565b6116bf565b005b34801561066757600080fd5b50610670611b7c565b60405161067d9190613d4f565b60405180910390f35b34801561069257600080fd5b506106ad60048036038101906106a891906139a6565b611d5a565b6040516106ba919061383b565b60405180910390f35b60007f80ac58cd000000000000000000000000000000000000000000000000000000007bffffffffffffffffffffffffffffffffffffffffffffffffffffffff1916827bffffffffffffffffffffffffffffffffffffffffffffffffffffffff1916148061078e57507f5b5e139f000000000000000000000000000000000000000000000000000000007bffffffffffffffffffffffffffffffffffffffffffffffffffffffff1916827bffffffffffffffffffffffffffffffffffffffffffffffffffffffff1916145b8061079e575061079d82611e93565b5b9050919050565b6060600080546107b490613da0565b80601f01602080910402602001604051908101604052809291908181526020018280546107e090613da0565b801561082d5780601f106108025761010080835404028352916020019161082d565b820191906000526020600020905b81548152906001019060200180831161081057829003601f168201915b5050505050905090565b600061084282611efd565b610881576040517f08c379a000000000000000000000000000000000000000000000000000000000815260040161087890613e44565b60405180910390fd5b6004600083815260200190815260200160002060009054906101000a900473ffffffffffffffffffffffffffffffffffffffff169050919050565b60006108c782610e41565b90508073ffffffffffffffffffffffffffffffffffffffff168373ffffffffffffffffffffffffffffffffffffffff161415610938576040517f08c379a000000000000000000000000000000000000000000000000000000000815260040161092f90613ed6565b60405180910390fd5b8073ffffffffffffffffffffffffffffffffffffffff16610957611f69565b73ffffffffffffffffffffffffffffffffffffffff161480610986575061098581610980611f69565b61145b565b5b6109c5576040517f08c379a00000000000000000000000000000000000000000000000000000000081526004016109bc90613f68565b60405180910390fd5b6109cf8383611f71565b505050565b600e8060000180546109e590613da0565b80601f0160208091040260200160405190810160405280929190818152602001828054610a1190613da0565b8015610a5e5780601f10610a3357610100808354040283529160200191610a5e565b820191906000526020600020905b815481529060010190602001808311610a4157829003601f168201915b505050505090806001018054610a7390613da0565b80601f0160208091040260200160405190810160405280929190818152602001828054610a9f90613da0565b8015610aec5780601f10610ac157610100808354040283529160200191610aec565b820191906000526020600020905b815481529060010190602001808311610acf57829003601f168201915b505050505090806002018054610b0190613da0565b80601f0160208091040260200160405190810160405280929190818152602001828054610b2d90613da0565b8015610b7a5780601f10610b4f57610100808354040283529160200191610b7a565b820191906000526020600020905b815481529060010190602001808311610b5d57829003601f168201915b5050505050905083565b610b95610b8f611f69565b8261202a565b610bd4576040517f08c379a0000000000000000000000000000000000000000000000000000000008152600401610bcb90613ffa565b60405180910390fd5b610bdf838383612108565b505050565b600c818051602081018201805184825260208301602085012081835280955050505050506000915054906101000a900473ffffffffffffffffffffffffffffffffffffffff1681565b60098054610c3a90613da0565b80601f0160208091040260200160405190810160405280929190818152602001828054610c6690613da0565b8015610cb35780601f10610c8857610100808354040283529160200191610cb3565b820191906000526020600020905b815481529060010190602001808311610c9657829003601f168201915b505050505081565b610cc36110a8565b610ccc57600080fd5b600047905060003373ffffffffffffffffffffffffffffffffffffffff1682604051610cf79061404b565b60006040518083038185875af1925050503d8060008114610d34576040519150601f19603f3d011682016040523d82523d6000602084013e610d39565b606091505b5050905080610d7d576040517f08c379a0000000000000000000000000000000000000000000000000000000008152600401610d74906140ac565b60405180910390fd5b5050565b610d9c8383836040518060200160405280600081525061125c565b505050565b600d6020528060005260406000206000915090508054610dc090613da0565b80601f0160208091040260200160405190810160405280929190818152602001828054610dec90613da0565b8015610e395780601f10610e0e57610100808354040283529160200191610e39565b820191906000526020600020905b815481529060010190602001808311610e1c57829003601f168201915b505050505081565b6000806002600084815260200190815260200160002060009054906101000a900473ffffffffffffffffffffffffffffffffffffffff169050600073ffffffffffffffffffffffffffffffffffffffff168173ffffffffffffffffffffffffffffffffffffffff161415610eea576040517f08c379a0000000000000000000000000000000000000000000000000000000008152600401610ee19061413e565b60405180910390fd5b80915050919050565b60008073ffffffffffffffffffffffffffffffffffffffff168273ffffffffffffffffffffffffffffffffffffffff161415610f64576040517f08c379a0000000000000000000000000000000000000000000000000000000008152600401610f5b906141d0565b60405180910390fd5b600360008373ffffffffffffffffffffffffffffffffffffffff1673ffffffffffffffffffffffffffffffffffffffff168152602001908152602001600020549050919050565b600c8686604051610fbd929190614220565b908152602001604051809103902060009054906101000a900473ffffffffffffffffffffffffffffffffffffffff1673ffffffffffffffffffffffffffffffffffffffff163373ffffffffffffffffffffffffffffffffffffffff1614611050576040517f82b4290000000000000000000000000000000000000000000000000000000000815260040160405180910390fd5b8383600e60000191906110649291906131e3565b508181600e60010191906110799291906131e3565b50505050505050565b600760009054906101000a900473ffffffffffffffffffffffffffffffffffffffff1681565b6000600760009054906101000a900473ffffffffffffffffffffffffffffffffffffffff1673ffffffffffffffffffffffffffffffffffffffff163373ffffffffffffffffffffffffffffffffffffffff1614905090565b60606001805461110f90613da0565b80601f016020809104026020016040519081016040528092919081815260200182805461113b90613da0565b80156111885780601f1061115d57610100808354040283529160200191611188565b820191906000526020600020905b81548152906001019060200180831161116b57829003601f168201915b5050505050905090565b600060036111e384848080601f016020809104026020016040519081016040528093929190818152602001838380828437600081840152601f19601f8201169050808301925050505050505061236f565b1015801561123e5750600a61123b84848080601f016020809104026020016040519081016040528093929190818152602001838380828437600081840152601f19601f8201169050808301925050505050505061236f565b11155b905092915050565b611258611251611f69565b8383612524565b5050565b61126d611267611f69565b8361202a565b6112ac576040517f08c379a00000000000000000000000000000000000000000000000000000000081526004016112a390613ffa565b60405180910390fd5b6112b884848484612691565b50505050565b6000600c83836040516112d2929190614220565b908152602001604051809103902060009054906101000a900473ffffffffffffffffffffffffffffffffffffffff16905092915050565b606061131482611efd565b611353576040517f08c379a000000000000000000000000000000000000000000000000000000000815260040161134a906142ab565b60405180910390fd5b600060066000848152602001908152602001600020805461137390613da0565b80601f016020809104026020016040519081016040528092919081815260200182805461139f90613da0565b80156113ec5780601f106113c1576101008083540402835291602001916113ec565b820191906000526020600020905b8154815290600101906020018083116113cf57829003601f168201915b5050505050905060006113fd6126ed565b9050600081511415611413578192505050611456565b6000825111156114485780826040516020016114309291906142fc565b60405160208183030381529060405292505050611456565b61145184612704565b925050505b919050565b6000600560008473ffffffffffffffffffffffffffffffffffffffff1673ffffffffffffffffffffffffffffffffffffffff16815260200190815260200160002060008373ffffffffffffffffffffffffffffffffffffffff1673ffffffffffffffffffffffffffffffffffffffff16815260200190815260200160002060009054906101000a900460ff16905092915050565b6114f7613269565b600e60405180606001604052908160008201805461151490613da0565b80601f016020809104026020016040519081016040528092919081815260200182805461154090613da0565b801561158d5780601f106115625761010080835404028352916020019161158d565b820191906000526020600020905b81548152906001019060200180831161157057829003601f168201915b505050505081526020016001820180546115a690613da0565b80601f01602080910402602001604051908101604052809291908181526020018280546115d290613da0565b801561161f5780601f106115f45761010080835404028352916020019161161f565b820191906000526020600020905b81548152906001019060200180831161160257829003601f168201915b5050505050815260200160028201805461163890613da0565b80601f016020809104026020016040519081016040528092919081815260200182805461166490613da0565b80156116b15780601f10611686576101008083540402835291602001916116b1565b820191906000526020600020905b81548152906001019060200180831161169457829003601f168201915b505050505081525050905090565b600073ffffffffffffffffffffffffffffffffffffffff16600c83836040516116e9929190614220565b908152602001604051809103902060009054906101000a900473ffffffffffffffffffffffffffffffffffffffff1673ffffffffffffffffffffffffffffffffffffffff1614611765576040517f3a81d6fc00000000000000000000000000000000000000000000000000000000815260040160405180910390fd5b61176f8282611192565b6117b25781816040517f7f19f48d0000000000000000000000000000000000000000000000000000000081526004016117a992919061434d565b60405180910390fd5b60006117be8383611d5a565b90506117ff6040518060400160405280601281526020017f507269636520666f7220646f6d61696e3a200000000000000000000000000000815250826127ab565b80341015611842576040517f08c379a0000000000000000000000000000000000000000000000000000000008152600401611839906143bd565b60405180910390fd5b60008383600960405160200161185a939291906144bd565b60405160208183030381529060405290506000600a82600b604051602001611884939291906144ee565b604051602081830303815290604052905060006118a16008612847565b905060006118f287878080601f016020809104026020016040519081016040528093929190818152602001838380828437600081840152601f19601f8201169050808301925050505050505061236f565b905060006118ff82612855565b90506119f36040518060600160405280603181526020016150556031913989898080601f016020809104026020016040519081016040528093929190818152602001838380828437600081840152601f19601f820116905080830192505050505050506009805461196f90613da0565b80601f016020809104026020016040519081016040528092919081815260200182805461199b90613da0565b80156119e85780601f106119bd576101008083540402835291602001916119e8565b820191906000526020600020905b8154815290600101906020018083116119cb57829003601f168201915b5050505050866129b6565b6000611a2986611a0287612a58565b84604051602001611a159392919061469b565b604051602081830303815290604052612a58565b9050600081604051602001611a3e9190614744565b6040516020818303038152906040529050611a7060405180606001604052806039815260200161501c60399139612bf0565b611aaf6040518060400160405280600e81526020017f46696e616c20746f6b656e55524900000000000000000000000000000000000081525082611df7565b611ad060405180606001604052806039815260200161508660399139612bf0565b611ada3386612c89565b611ae48582612ca7565b33600c8b8b604051611af7929190614220565b908152602001604051809103902060006101000a81548173ffffffffffffffffffffffffffffffffffffffff021916908373ffffffffffffffffffffffffffffffffffffffff1602179055508989600d60008881526020019081526020016000209190611b659291906131e3565b50611b706008612d1b565b50505050505050505050565b6060611bbc6040518060400160405280601f81526020017f47657474696e6720616c6c206e616d65732066726f6d20636f6e747261637400815250612bf0565b6000611bc86008612847565b67ffffffffffffffff811115611be157611be061368b565b5b604051908082528060200260200182016040528015611c1457816020015b6060815260200190600190039081611bff5790505b50905060005b611c246008612847565b811015611d5257600d60008281526020019081526020016000208054611c4990613da0565b80601f0160208091040260200160405190810160405280929190818152602001828054611c7590613da0565b8015611cc25780601f10611c9757610100808354040283529160200191611cc2565b820191906000526020600020905b815481529060010190602001808311611ca557829003601f168201915b5050505050828281518110611cda57611cd9614766565b5b6020026020010181905250611d3f6040518060400160405280601781526020017f4e616d6520666f7220746f6b656e20256420697320257300000000000000000081525082848481518110611d3257611d31614766565b5b6020026020010151612d31565b8080611d4a906147c4565b915050611c1a565b508091505090565b600080611daa84848080601f016020809104026020016040519081016040528093929190818152602001838380828437600081840152601f19601f8201169050808301925050505050505061236f565b905060008111611db957600080fd5b6003811415611dd057640ba43b7400915050611df1565b6004811415611de7576406fc23ac00915050611df1565b6402540be4009150505b92915050565b611e8f8282604051602401611e0d92919061480d565b6040516020818303038152906040527f4b5c4277000000000000000000000000000000000000000000000000000000007bffffffffffffffffffffffffffffffffffffffffffffffffffffffff19166020820180517bffffffffffffffffffffffffffffffffffffffffffffffffffffffff8381831617835250505050612dd0565b5050565b60007f01ffc9a7000000000000000000000000000000000000000000000000000000007bffffffffffffffffffffffffffffffffffffffffffffffffffffffff1916827bffffffffffffffffffffffffffffffffffffffffffffffffffffffff1916149050919050565b60008073ffffffffffffffffffffffffffffffffffffffff166002600084815260200190815260200160002060009054906101000a900473ffffffffffffffffffffffffffffffffffffffff1673ffffffffffffffffffffffffffffffffffffffff1614159050919050565b600033905090565b816004600083815260200190815260200160002060006101000a81548173ffffffffffffffffffffffffffffffffffffffff021916908373ffffffffffffffffffffffffffffffffffffffff160217905550808273ffffffffffffffffffffffffffffffffffffffff16611fe483610e41565b73ffffffffffffffffffffffffffffffffffffffff167f8c5be1e5ebec7d5bd14f71427d1e84f3dd0314c0f7b2291e5b200ac8c7c3b92560405160405180910390a45050565b600061203582611efd565b612074576040517f08c379a000000000000000000000000000000000000000000000000000000000815260040161206b906148b6565b60405180910390fd5b600061207f83610e41565b90508073ffffffffffffffffffffffffffffffffffffffff168473ffffffffffffffffffffffffffffffffffffffff1614806120ee57508373ffffffffffffffffffffffffffffffffffffffff166120d684610837565b73ffffffffffffffffffffffffffffffffffffffff16145b806120ff57506120fe818561145b565b5b91505092915050565b8273ffffffffffffffffffffffffffffffffffffffff1661212882610e41565b73ffffffffffffffffffffffffffffffffffffffff161461217e576040517f08c379a000000000000000000000000000000000000000000000000000000000815260040161217590614948565b60405180910390fd5b600073ffffffffffffffffffffffffffffffffffffffff168273ffffffffffffffffffffffffffffffffffffffff1614156121ee576040517f08c379a00000000000000000000000000000000000000000000000000000000081526004016121e5906149da565b60405180910390fd5b6121f9838383612df9565b612204600082611f71565b6001600360008573ffffffffffffffffffffffffffffffffffffffff1673ffffffffffffffffffffffffffffffffffffffff168152602001908152602001600020600082825461225491906149fa565b925050819055506001600360008473ffffffffffffffffffffffffffffffffffffffff1673ffffffffffffffffffffffffffffffffffffffff16815260200190815260200160002060008282546122ab9190614a2e565b92505081905550816002600083815260200190815260200160002060006101000a81548173ffffffffffffffffffffffffffffffffffffffff021916908373ffffffffffffffffffffffffffffffffffffffff160217905550808273ffffffffffffffffffffffffffffffffffffffff168473ffffffffffffffffffffffffffffffffffffffff167fddf252ad1be2c89b69c2b068fc378daa952ba7f163c4a11628f55a4df523b3ef60405160405180910390a461236a838383612dfe565b505050565b60008060008084519050600092505b8082101561251957600085838151811061239b5761239a614766565b5b602001015160f81c60f81b9050608060f81b817effffffffffffffffffffffffffffffffffffffffffffffffffffffffffffff191610156123ea576001836123e39190614a2e565b9250612505565b60e060f81b817effffffffffffffffffffffffffffffffffffffffffffffffffffffffffffff1916101561242c576002836124259190614a2e565b9250612504565b60f060f81b817effffffffffffffffffffffffffffffffffffffffffffffffffffffffffffff1916101561246e576003836124679190614a2e565b9250612503565b60f8801b817effffffffffffffffffffffffffffffffffffffffffffffffffffffffffffff191610156124af576004836124a89190614a2e565b9250612502565b60fc60f81b817effffffffffffffffffffffffffffffffffffffffffffffffffffffffffffff191610156124f1576005836124ea9190614a2e565b9250612501565b6006836124fe9190614a2e565b92505b5b5b5b5b508280612511906147c4565b93505061237e565b829350505050919050565b8173ffffffffffffffffffffffffffffffffffffffff168373ffffffffffffffffffffffffffffffffffffffff161415612593576040517f08c379a000000000000000000000000000000000000000000000000000000000815260040161258a90614ad0565b60405180910390fd5b80600560008573ffffffffffffffffffffffffffffffffffffffff1673ffffffffffffffffffffffffffffffffffffffff16815260200190815260200160002060008473ffffffffffffffffffffffffffffffffffffffff1673ffffffffffffffffffffffffffffffffffffffff16815260200190815260200160002060006101000a81548160ff0219169083151502179055508173ffffffffffffffffffffffffffffffffffffffff168373ffffffffffffffffffffffffffffffffffffffff167f17307eab39ab6107e8899845ad3d59bd9653f200f220920489ca2b5937696c318360405161268491906133e1565b60405180910390a3505050565b61269c848484612108565b6126a884848484612e03565b6126e7576040517f08c379a00000000000000000000000000000000000000000000000000000000081526004016126de90614b62565b60405180910390fd5b50505050565b606060405180602001604052806000815250905090565b606061270f82611efd565b61274e576040517f08c379a000000000000000000000000000000000000000000000000000000000815260040161274590614bf4565b60405180910390fd5b60006127586126ed565b9050600081511161277857604051806020016040528060008152506127a3565b8061278284612855565b6040516020016127939291906142fc565b6040516020818303038152906040525b915050919050565b61284382826040516024016127c1929190614c14565b6040516020818303038152906040527f9710a9d0000000000000000000000000000000000000000000000000000000007bffffffffffffffffffffffffffffffffffffffffffffffffffffffff19166020820180517bffffffffffffffffffffffffffffffffffffffffffffffffffffffff8381831617835250505050612dd0565b5050565b600081600001549050919050565b6060600082141561289d576040518060400160405280600181526020017f300000000000000000000000000000000000000000000000000000000000000081525090506129b1565b600082905060005b600082146128cf5780806128b8906147c4565b915050600a826128c89190614c73565b91506128a5565b60008167ffffffffffffffff8111156128eb576128ea61368b565b5b6040519080825280601f01601f19166020018201604052801561291d5781602001600182028036833780820191505090505b5090505b600085146129aa5760018261293691906149fa565b9150600a856129459190614ca4565b60306129519190614a2e565b60f81b81838151811061296757612966614766565b5b60200101907effffffffffffffffffffffffffffffffffffffffffffffffffffffffffffff1916908160001a905350600a856129a39190614c73565b9450612921565b8093505050505b919050565b612a52848484846040516024016129d09493929190614cd5565b6040516020818303038152906040527f9fd009f5000000000000000000000000000000000000000000000000000000007bffffffffffffffffffffffffffffffffffffffffffffffffffffffff19166020820180517bffffffffffffffffffffffffffffffffffffffffffffffffffffffff8381831617835250505050612dd0565b50505050565b60606000825190506000811415612a815760405180602001604052806000815250915050612beb565b60006003600283612a929190614a2e565b612a9c9190614c73565b6004612aa89190614d2f565b90506000602082612ab99190614a2e565b67ffffffffffffffff811115612ad257612ad161368b565b5b6040519080825280601f01601f191660200182016040528015612b045781602001600182028036833780820191505090505b50905060006040518060600160405280604081526020016150bf604091399050600181016020830160005b86811015612ba85760038101905062ffffff818a015116603f8160121c168401518060081b905060ff603f83600c1c1686015116810190508060081b905060ff603f8360061c1686015116810190508060081b905060ff603f831686015116810190508060e01b90508084526004840193505050612b2f565b506003860660018114612bc25760028114612bd257612bdd565b613d3d60f01b6002830352612bdd565b603d60f81b60018303525b508484525050819450505050505b919050565b612c8681604051602401612c049190613495565b6040516020818303038152906040527f41304fac000000000000000000000000000000000000000000000000000000007bffffffffffffffffffffffffffffffffffffffffffffffffffffffff19166020820180517bffffffffffffffffffffffffffffffffffffffffffffffffffffffff8381831617835250505050612dd0565b50565b612ca3828260405180602001604052806000815250612f8b565b5050565b612cb082611efd565b612cef576040517f08c379a0000000000000000000000000000000000000000000000000000000008152600401612ce690614dfb565b60405180910390fd5b80600660008481526020019081526020016000209080519060200190612d1692919061328a565b505050565b6001816000016000828254019250508190555050565b612dcb838383604051602401612d4993929190614e1b565b6040516020818303038152906040527fa3f5c739000000000000000000000000000000000000000000000000000000007bffffffffffffffffffffffffffffffffffffffffffffffffffffffff19166020820180517bffffffffffffffffffffffffffffffffffffffffffffffffffffffff8381831617835250505050612dd0565b505050565b60008151905060006a636f6e736f6c652e6c6f679050602083016000808483855afa5050505050565b505050565b505050565b6000612e248473ffffffffffffffffffffffffffffffffffffffff16612fe6565b15612f7e578373ffffffffffffffffffffffffffffffffffffffff1663150b7a02612e4d611f69565b8786866040518563ffffffff1660e01b8152600401612e6f9493929190614eb5565b6020604051808303816000875af1925050508015612eab57506040513d601f19601f82011682018060405250810190612ea89190614f16565b60015b612f2e573d8060008114612edb576040519150601f19603f3d011682016040523d82523d6000602084013e612ee0565b606091505b50600081511415612f26576040517f08c379a0000000000000000000000000000000000000000000000000000000008152600401612f1d90614b62565b60405180910390fd5b805181602001fd5b63150b7a0260e01b7bffffffffffffffffffffffffffffffffffffffffffffffffffffffff1916817bffffffffffffffffffffffffffffffffffffffffffffffffffffffff191614915050612f83565b600190505b949350505050565b612f958383613009565b612fa26000848484612e03565b612fe1576040517f08c379a0000000000000000000000000000000000000000000000000000000008152600401612fd890614b62565b60405180910390fd5b505050565b6000808273ffffffffffffffffffffffffffffffffffffffff163b119050919050565b600073ffffffffffffffffffffffffffffffffffffffff168273ffffffffffffffffffffffffffffffffffffffff161415613079576040517f08c379a000000000000000000000000000000000000000000000000000000000815260040161307090614f8f565b60405180910390fd5b61308281611efd565b156130c2576040517f08c379a00000000000000000000000000000000000000000000000000000000081526004016130b990614ffb565b60405180910390fd5b6130ce60008383612df9565b6001600360008473ffffffffffffffffffffffffffffffffffffffff1673ffffffffffffffffffffffffffffffffffffffff168152602001908152602001600020600082825461311e9190614a2e565b92505081905550816002600083815260200190815260200160002060006101000a81548173ffffffffffffffffffffffffffffffffffffffff021916908373ffffffffffffffffffffffffffffffffffffffff160217905550808273ffffffffffffffffffffffffffffffffffffffff16600073ffffffffffffffffffffffffffffffffffffffff167fddf252ad1be2c89b69c2b068fc378daa952ba7f163c4a11628f55a4df523b3ef60405160405180910390a46131df60008383612dfe565b5050565b8280546131ef90613da0565b90600052602060002090601f0160209004810192826132115760008555613258565b82601f1061322a57803560ff1916838001178555613258565b82800160010185558215613258579182015b8281111561325757823582559160200191906001019061323c565b5b5090506132659190613310565b5090565b60405180606001604052806060815260200160608152602001606081525090565b82805461329690613da0565b90600052602060002090601f0160209004810192826132b857600085556132ff565b82601f106132d157805160ff19168380011785556132ff565b828001600101855582156132ff579182015b828111156132fe5782518255916020019190600101906132e3565b5b50905061330c9190613310565b5090565b5b80821115613329576000816000905550600101613311565b5090565b6000604051905090565b600080fd5b600080fd5b60007fffffffff0000000000000000000000000000000000000000000000000000000082169050919050565b61337681613341565b811461338157600080fd5b50565b6000813590506133938161336d565b92915050565b6000602082840312156133af576133ae613337565b5b60006133bd84828501613384565b91505092915050565b60008115159050919050565b6133db816133c6565b82525050565b60006020820190506133f660008301846133d2565b92915050565b600081519050919050565b600082825260208201905092915050565b60005b8381101561343657808201518184015260208101905061341b565b83811115613445576000848401525b50505050565b6000601f19601f8301169050919050565b6000613467826133fc565b6134718185613407565b9350613481818560208601613418565b61348a8161344b565b840191505092915050565b600060208201905081810360008301526134af818461345c565b905092915050565b6000819050919050565b6134ca816134b7565b81146134d557600080fd5b50565b6000813590506134e7816134c1565b92915050565b60006020828403121561350357613502613337565b5b6000613511848285016134d8565b91505092915050565b600073ffffffffffffffffffffffffffffffffffffffff82169050919050565b60006135458261351a565b9050919050565b6135558161353a565b82525050565b6000602082019050613570600083018461354c565b92915050565b61357f8161353a565b811461358a57600080fd5b50565b60008135905061359c81613576565b92915050565b600080604083850312156135b9576135b8613337565b5b60006135c78582860161358d565b92505060206135d8858286016134d8565b9150509250929050565b600060608201905081810360008301526135fc818661345c565b90508181036020830152613610818561345c565b90508181036040830152613624818461345c565b9050949350505050565b60008060006060848603121561364757613646613337565b5b60006136558682870161358d565b93505060206136668682870161358d565b9250506040613677868287016134d8565b9150509250925092565b600080fd5b600080fd5b7f4e487b7100000000000000000000000000000000000000000000000000000000600052604160045260246000fd5b6136c38261344b565b810181811067ffffffffffffffff821117156136e2576136e161368b565b5b80604052505050565b60006136f561332d565b905061370182826136ba565b919050565b600067ffffffffffffffff8211156137215761372061368b565b5b61372a8261344b565b9050602081019050919050565b82818337600083830152505050565b600061375961375484613706565b6136eb565b90508281526020810184848401111561377557613774613686565b5b613780848285613737565b509392505050565b600082601f83011261379d5761379c613681565b5b81356137ad848260208601613746565b91505092915050565b6000602082840312156137cc576137cb613337565b5b600082013567ffffffffffffffff8111156137ea576137e961333c565b5b6137f684828501613788565b91505092915050565b60006020828403121561381557613814613337565b5b60006138238482850161358d565b91505092915050565b613835816134b7565b82525050565b6000602082019050613850600083018461382c565b92915050565b600080fd5b600080fd5b60008083601f84011261387657613875613681565b5b8235905067ffffffffffffffff81111561389357613892613856565b5b6020830191508360018202830111156138af576138ae61385b565b5b9250929050565b600080600080600080606087890312156138d3576138d2613337565b5b600087013567ffffffffffffffff8111156138f1576138f061333c565b5b6138fd89828a01613860565b9650965050602087013567ffffffffffffffff8111156139205761391f61333c565b5b61392c89828a01613860565b9450945050604087013567ffffffffffffffff81111561394f5761394e61333c565b5b61395b89828a01613860565b92509250509295509295509295565b60006139758261351a565b9050919050565b6139858161396a565b82525050565b60006020820190506139a0600083018461397c565b92915050565b600080602083850312156139bd576139bc613337565b5b600083013567ffffffffffffffff8111156139db576139da61333c565b5b6139e785828601613860565b92509250509250929050565b6139fc816133c6565b8114613a0757600080fd5b50565b600081359050613a19816139f3565b92915050565b60008060408385031215613a3657613a35613337565b5b6000613a448582860161358d565b9250506020613a5585828601613a0a565b9150509250929050565b600067ffffffffffffffff821115613a7a57613a7961368b565b5b613a838261344b565b9050602081019050919050565b6000613aa3613a9e84613a5f565b6136eb565b905082815260208101848484011115613abf57613abe613686565b5b613aca848285613737565b509392505050565b600082601f830112613ae757613ae6613681565b5b8135613af7848260208601613a90565b91505092915050565b60008060008060808587031215613b1a57613b19613337565b5b6000613b288782880161358d565b9450506020613b398782880161358d565b9350506040613b4a878288016134d8565b925050606085013567ffffffffffffffff811115613b6b57613b6a61333c565b5b613b7787828801613ad2565b91505092959194509250565b60008060408385031215613b9a57613b99613337565b5b6000613ba88582860161358d565b9250506020613bb98582860161358d565b9150509250929050565b600082825260208201905092915050565b6000613bdf826133fc565b613be98185613bc3565b9350613bf9818560208601613418565b613c028161344b565b840191505092915050565b60006060830160008301518482036000860152613c2a8282613bd4565b91505060208301518482036020860152613c448282613bd4565b91505060408301518482036040860152613c5e8282613bd4565b9150508091505092915050565b60006020820190508181036000830152613c858184613c0d565b905092915050565b600081519050919050565b600082825260208201905092915050565b6000819050602082019050919050565b6000613cc58383613bd4565b905092915050565b6000602082019050919050565b6000613ce582613c8d565b613cef8185613c98565b935083602082028501613d0185613ca9565b8060005b85811015613d3d5784840389528151613d1e8582613cb9565b9450613d2983613ccd565b925060208a01995050600181019050613d05565b50829750879550505050505092915050565b60006020820190508181036000830152613d698184613cda565b905092915050565b7f4e487b7100000000000000000000000000000000000000000000000000000000600052602260045260246000fd5b60006002820490506001821680613db857607f821691505b60208210811415613dcc57613dcb613d71565b5b50919050565b7f4552433732313a20617070726f76656420717565727920666f72206e6f6e657860008201527f697374656e7420746f6b656e0000000000000000000000000000000000000000602082015250565b6000613e2e602c83613407565b9150613e3982613dd2565b604082019050919050565b60006020820190508181036000830152613e5d81613e21565b9050919050565b7f4552433732313a20617070726f76616c20746f2063757272656e74206f776e6560008201527f7200000000000000000000000000000000000000000000000000000000000000602082015250565b6000613ec0602183613407565b9150613ecb82613e64565b604082019050919050565b60006020820190508181036000830152613eef81613eb3565b9050919050565b7f4552433732313a20617070726f76652063616c6c6572206973206e6f74206f7760008201527f6e6572206e6f7220617070726f76656420666f7220616c6c0000000000000000602082015250565b6000613f52603883613407565b9150613f5d82613ef6565b604082019050919050565b60006020820190508181036000830152613f8181613f45565b9050919050565b7f4552433732313a207472616e736665722063616c6c6572206973206e6f74206f60008201527f776e6572206e6f7220617070726f766564000000000000000000000000000000602082015250565b6000613fe4603183613407565b9150613fef82613f88565b604082019050919050565b6000602082019050818103600083015261401381613fd7565b9050919050565b600081905092915050565b50565b600061403560008361401a565b915061404082614025565b600082019050919050565b600061405682614028565b9150819050919050565b7f4661696c656420746f207769746864726177204d617469630000000000000000600082015250565b6000614096601883613407565b91506140a182614060565b602082019050919050565b600060208201905081810360008301526140c581614089565b9050919050565b7f4552433732313a206f776e657220717565727920666f72206e6f6e657869737460008201527f656e7420746f6b656e0000000000000000000000000000000000000000000000602082015250565b6000614128602983613407565b9150614133826140cc565b604082019050919050565b600060208201905081810360008301526141578161411b565b9050919050565b7f4552433732313a2062616c616e636520717565727920666f7220746865207a6560008201527f726f206164647265737300000000000000000000000000000000000000000000602082015250565b60006141ba602a83613407565b91506141c58261415e565b604082019050919050565b600060208201905081810360008301526141e9816141ad565b9050919050565b600081905092915050565b600061420783856141f0565b9350614214838584613737565b82840190509392505050565b600061422d8284866141fb565b91508190509392505050565b7f45524337323155524953746f726167653a2055524920717565727920666f722060008201527f6e6f6e6578697374656e7420746f6b656e000000000000000000000000000000602082015250565b6000614295603183613407565b91506142a082614239565b604082019050919050565b600060208201905081810360008301526142c481614288565b9050919050565b60006142d6826133fc565b6142e081856141f0565b93506142f0818560208601613418565b80840191505092915050565b600061430882856142cb565b915061431482846142cb565b91508190509392505050565b600061432c8385613407565b9350614339838584613737565b6143428361344b565b840190509392505050565b60006020820190508181036000830152614368818486614320565b90509392505050565b7f4e6f7420656e6f756768204d6174696320706169640000000000000000000000600082015250565b60006143a7601583613407565b91506143b282614371565b602082019050919050565b600060208201905081810360008301526143d68161439a565b9050919050565b7f2e00000000000000000000000000000000000000000000000000000000000000600082015250565b60006144136001836141f0565b915061441e826143dd565b600182019050919050565b60008190508160005260206000209050919050565b6000815461444b81613da0565b61445581866141f0565b945060018216600081146144705760018114614481576144b4565b60ff198316865281860193506144b4565b61448a85614429565b60005b838110156144ac5781548189015260018201915060208101905061448d565b838801955050505b50505092915050565b60006144ca8285876141fb565b91506144d582614406565b91506144e1828461443e565b9150819050949350505050565b60006144fa828661443e565b915061450682856142cb565b9150614512828461443e565b9150819050949350505050565b7f7b226e616d65223a202200000000000000000000000000000000000000000000600082015250565b6000614555600a836141f0565b91506145608261451f565b600a82019050919050565b7f222c20226465736372697074696f6e223a20224120646f6d61696e206f6e207460008201527f6865204b6172656e204269746368696e672053657276696365222c2022696d6160208201527f6765223a2022646174613a696d6167652f7376672b786d6c3b6261736536342c604082015250565b60006145ed6060836141f0565b91506145f88261456b565b606082019050919050565b7f222c226c656e677468223a220000000000000000000000000000000000000000600082015250565b6000614639600c836141f0565b915061464482614603565b600c82019050919050565b7f227d000000000000000000000000000000000000000000000000000000000000600082015250565b60006146856002836141f0565b91506146908261464f565b600282019050919050565b60006146a682614548565b91506146b282866142cb565b91506146bd826145e0565b91506146c982856142cb565b91506146d48261462c565b91506146e082846142cb565b91506146eb82614678565b9150819050949350505050565b7f646174613a6170706c69636174696f6e2f6a736f6e3b6261736536342c000000600082015250565b600061472e601d836141f0565b9150614739826146f8565b601d82019050919050565b600061474f82614721565b915061475b82846142cb565b915081905092915050565b7f4e487b7100000000000000000000000000000000000000000000000000000000600052603260045260246000fd5b7f4e487b7100000000000000000000000000000000000000000000000000000000600052601160045260246000fd5b60006147cf826134b7565b91507fffffffffffffffffffffffffffffffffffffffffffffffffffffffffffffffff82141561480257614801614795565b5b600182019050919050565b60006040820190508181036000830152614827818561345c565b9050818103602083015261483b818461345c565b90509392505050565b7f4552433732313a206f70657261746f7220717565727920666f72206e6f6e657860008201527f697374656e7420746f6b656e0000000000000000000000000000000000000000602082015250565b60006148a0602c83613407565b91506148ab82614844565b604082019050919050565b600060208201905081810360008301526148cf81614893565b9050919050565b7f4552433732313a207472616e736665722066726f6d20696e636f72726563742060008201527f6f776e6572000000000000000000000000000000000000000000000000000000602082015250565b6000614932602583613407565b915061493d826148d6565b604082019050919050565b6000602082019050818103600083015261496181614925565b9050919050565b7f4552433732313a207472616e7366657220746f20746865207a65726f2061646460008201527f7265737300000000000000000000000000000000000000000000000000000000602082015250565b60006149c4602483613407565b91506149cf82614968565b604082019050919050565b600060208201905081810360008301526149f3816149b7565b9050919050565b6000614a05826134b7565b9150614a10836134b7565b925082821015614a2357614a22614795565b5b828203905092915050565b6000614a39826134b7565b9150614a44836134b7565b9250827fffffffffffffffffffffffffffffffffffffffffffffffffffffffffffffffff03821115614a7957614a78614795565b5b828201905092915050565b7f4552433732313a20617070726f766520746f2063616c6c657200000000000000600082015250565b6000614aba601983613407565b9150614ac582614a84565b602082019050919050565b60006020820190508181036000830152614ae981614aad565b9050919050565b7f4552433732313a207472616e7366657220746f206e6f6e20455243373231526560008201527f63656976657220696d706c656d656e7465720000000000000000000000000000602082015250565b6000614b4c603283613407565b9150614b5782614af0565b604082019050919050565b60006020820190508181036000830152614b7b81614b3f565b9050919050565b7f4552433732314d657461646174613a2055524920717565727920666f72206e6f60008201527f6e6578697374656e7420746f6b656e0000000000000000000000000000000000602082015250565b6000614bde602f83613407565b9150614be982614b82565b604082019050919050565b60006020820190508181036000830152614c0d81614bd1565b9050919050565b60006040820190508181036000830152614c2e818561345c565b9050614c3d602083018461382c565b9392505050565b7f4e487b7100000000000000000000000000000000000000000000000000000000600052601260045260246000fd5b6000614c7e826134b7565b9150614c89836134b7565b925082614c9957614c98614c44565b5b828204905092915050565b6000614caf826134b7565b9150614cba836134b7565b925082614cca57614cc9614c44565b5b828206905092915050565b60006080820190508181036000830152614cef818761345c565b90508181036020830152614d03818661345c565b90508181036040830152614d17818561345c565b9050614d26606083018461382c565b95945050505050565b6000614d3a826134b7565b9150614d45836134b7565b9250817fffffffffffffffffffffffffffffffffffffffffffffffffffffffffffffffff0483118215151615614d7e57614d7d614795565b5b828202905092915050565b7f45524337323155524953746f726167653a2055524920736574206f66206e6f6e60008201527f6578697374656e7420746f6b656e000000000000000000000000000000000000602082015250565b6000614de5602e83613407565b9150614df082614d89565b604082019050919050565b60006020820190508181036000830152614e1481614dd8565b9050919050565b60006060820190508181036000830152614e35818661345c565b9050614e44602083018561382c565b8181036040830152614e56818461345c565b9050949350505050565b600081519050919050565b600082825260208201905092915050565b6000614e8782614e60565b614e918185614e6b565b9350614ea1818560208601613418565b614eaa8161344b565b840191505092915050565b6000608082019050614eca600083018761354c565b614ed7602083018661354c565b614ee4604083018561382c565b8181036060830152614ef68184614e7c565b905095945050505050565b600081519050614f108161336d565b92915050565b600060208284031215614f2c57614f2b613337565b5b6000614f3a84828501614f01565b91505092915050565b7f4552433732313a206d696e7420746f20746865207a65726f2061646472657373600082015250565b6000614f79602083613407565b9150614f8482614f43565b602082019050919050565b60006020820190508181036000830152614fa881614f6c565b9050919050565b7f4552433732313a20746f6b656e20616c7265616479206d696e74656400000000600082015250565b6000614fe5601c83613407565b9150614ff082614faf565b602082019050919050565b6000602082019050818103600083015261501481614fd8565b905091905056fe0a2d2d2d2d2d2d2d2d2d2d2d2d2d2d2d2d2d2d2d2d2d2d2d2d2d2d2d2d2d2d2d2d2d2d2d2d2d2d2d2d2d2d2d2d2d2d2d2d2d2d2d2d2d2d2d2d5265676973746572696e672025732e2573206f6e2074686520636f6e7472616374207769746820746f6b656e49442025642d2d2d2d2d2d2d2d2d2d2d2d2d2d2d2d2d2d2d2d2d2d2d2d2d2d2d2d2d2d2d2d2d2d2d2d2d2d2d2d2d2d2d2d2d2d2d2d2d2d2d2d2d2d2d2d0a4142434445464748494a4b4c4d4e4f505152535455565758595a6162636465666768696a6b6c6d6e6f707172737475767778797a303132333435363738392b2fa26469706673582212203dd8b3d344ba32d6551186b46199474e220d68177466739f8eb5c5ff13f8131864736f6c634300080a00333c73766720786d6c6e733d22687474703a2f2f7777772e77332e6f72672f323030302f737667222077696474683d2232373022206865696768743d22323730222066696c6c3d226e6f6e65223e3c706174682066696c6c3d2275726c282342292220643d224d302030683237307632373048307a222f3e3c646566733e3c66696c7465722069643d22412220636f6c6f722d696e746572706f6c6174696f6e2d66696c746572733d2273524742222066696c746572556e6974733d227573657253706163654f6e55736522206865696768743d22323730222077696474683d22323730223e3c666544726f70536861646f772064783d2230222064793d22312220737464446576696174696f6e3d22322220666c6f6f642d6f7061636974793d222e323235222077696474683d223230302522206865696768743d2232303025222f3e3c2f66696c7465723e3c2f646566733e3c7061746820643d224d37322e3836332034322e393439632d2e3636382d2e3338372d312e3432362d2e35392d322e3139372d2e3539732d312e3532392e3230342d322e3139372e35396c2d31302e30383120362e3033322d362e383520332e3933342d31302e30383120362e303332632d2e3636382e3338372d312e3432362e35392d322e3139372e3539732d312e3532392d2e3230342d322e3139372d2e35396c2d382e3031332d342e37323161342e353220342e35322030203020312d312e3538392d312e363136632d2e3338342d2e3636352d2e3539342d312e3431382d2e3630382d322e313837762d392e3331632d2e3031332d2e3737352e3138352d312e3533382e3537322d322e32303861342e323520342e323520302030203120312e3632352d312e3539356c372e3838342d342e3539632e3636382d2e33383720312e3432362d2e353920322e3139372d2e353973312e3532392e32303420322e3139372e35396c372e38383420342e353961342e353220342e353220302030203120312e35383920312e363136632e3338342e3636352e35393420312e3431382e36303820322e31383776362e3033326c362e38352d342e303635762d362e303332632e3031332d2e3737352d2e3138352d312e3533382d2e3537322d322e32303861342e323520342e32352030203020302d312e3632352d312e3539354c34312e3435362032342e3539632d2e3636382d2e3338372d312e3432362d2e35392d322e3139372d2e3539732d312e3532392e3230342d322e3139372e35396c2d31342e38363420382e36353561342e323520342e32352030203020302d312e36323520312e353935632d2e3338372e36372d2e35383520312e3433342d2e35373220322e3230387631372e343431632d2e3031332e3737352e31383520312e3533382e35373220322e32303861342e323520342e323520302030203020312e36323520312e3539356c31342e38363420382e363535632e3636382e33383720312e3432362e353920322e3139372e353973312e3532392d2e32303420322e3139372d2e35396c31302e3038312d352e39303120362e38352d342e3036352031302e3038312d352e393031632e3636382d2e33383720312e3432362d2e353920322e3139372d2e353973312e3532392e32303420322e3139372e35396c372e38383420342e353961342e353220342e353220302030203120312e35383920312e363136632e3338342e3636352e35393420312e3431382e36303820322e31383776392e333131632e3031332e3737352d2e31383520312e3533382d2e35373220322e32303861342e323520342e32352030203020312d312e36323520312e3539356c2d372e38383420342e373231632d2e3636382e3338372d312e3432362e35392d322e3139372e3539732d312e3532392d2e3230342d322e3139372d2e35396c2d372e3838342d342e353961342e353220342e35322030203020312d312e3538392d312e363136632d2e3338352d2e3636352d2e3539342d312e3431382d2e3630382d322e313837762d362e3033326c2d362e383520342e30363576362e303332632d2e3031332e3737352e31383520312e3533382e35373220322e32303861342e323520342e323520302030203020312e36323520312e3539356c31342e38363420382e363535632e3636382e33383720312e3432362e353920322e3139372e353973312e3532392d2e32303420322e3139372d2e35396c31342e3836342d382e363535632e3635372d2e33393420312e3230342d2e393520312e3538392d312e363136732e3539342d312e3431382e3630392d322e3138375635352e353338632e3031332d2e3737352d2e3138352d312e3533382d2e3537322d322e32303861342e323520342e32352030203020302d312e3632352d312e3539356c2d31342e3939332d382e3738367a222066696c6c3d2223666666222f3e3c646566733e3c6c696e6561724772616469656e742069643d2242222078313d2230222079313d2230222078323d22323730222079323d2232373022206772616469656e74556e6974733d227573657253706163654f6e557365223e3c73746f702073746f702d636f6c6f723d2223636235656565222f3e3c73746f70206f66667365743d2231222073746f702d636f6c6f723d2223306364376534222073746f702d6f7061636974793d222e3939222f3e3c2f6c696e6561724772616469656e743e3c2f646566733e3c7465787420783d2233322e352220793d223233312220666f6e742d73697a653d223237222066696c6c3d2223666666222066696c7465723d2275726c282341292220666f6e742d66616d696c793d22506c7573204a616b617274612053616e732c44656a6156752053616e732c4e6f746f20436f6c6f7220456d6f6a692c4170706c6520436f6c6f7220456d6f6a692c73616e732d73657269662220666f6e742d7765696768743d22626f6c64223e",
  "linkReferences": {},
  "deployedLinkReferences": {}
}